{"contracts/Voting.sol":{"Voting":{"abi":[{"inputs":[{"internalType":"string[]","name":"_candidateNames","type":"string[]"},{"internalType":"uint256","name":"_votingDuration","type":"uint256"}],"stateMutability":"nonpayable","type":"constructor"},{"inputs":[{"internalType":"string","name":"_name","type":"string"}],"name":"addCandidate","outputs":[],"stateMutability":"nonpayable","type":"function"},{"inputs":[{"internalType":"uint256","name":"","type":"uint256"}],"name":"candidates","outputs":[{"internalType":"string","name":"name","type":"string"},{"internalType":"uint256","name":"voteCount","type":"uint256"}],"stateMutability":"view","type":"function"},{"inputs":[],"name":"getAllVotesOfCandidates","outputs":[{"components":[{"internalType":"string","name":"name","type":"string"},{"internalType":"uint256","name":"voteCount","type":"uint256"}],"internalType":"struct Voting.Candidate[]","name":"","type":"tuple[]"}],"stateMutability":"view","type":"function"},{"inputs":[],"name":"getRemainingTime","outputs":[{"internalType":"uint256","name":"","type":"uint256"}],"stateMutability":"view","type":"function"},{"inputs":[],"name":"getVotingStatus","outputs":[{"internalType":"bool","name":"","type":"bool"}],"stateMutability":"view","type":"function"},{"inputs":[],"name":"owner","outputs":[{"internalType":"address","name":"","type":"address"}],"stateMutability":"view","type":"function"},{"inputs":[{"internalType":"uint256","name":"_candidateIndex","type":"uint256"}],"name":"vote","outputs":[],"stateMutability":"nonpayable","type":"function"},{"inputs":[{"internalType":"address","name":"","type":"address"}],"name":"voters","outputs":[{"internalType":"bool","name":"","type":"bool"}],"stateMutability":"view","type":"function"},{"inputs":[],"name":"votingEnd","outputs":[{"internalType":"uint256","name":"","type":"uint256"}],"stateMutability":"view","type":"function"},{"inputs":[],"name":"votingStart","outputs":[{"internalType":"uint256","name":"","type":"uint256"}],"stateMutability":"view","type":"function"}],"evm":{"bytecode":{"linkReferences":{},"object":"608060405234801561001057600080fd5b506040516119e43803806119e4833981810160405281019061003291906103c7565b60005b82518110156100c8576000604051806040016040528085848151811061005e5761005d610423565b5b602002602001015181526020016000815250908060018154018082558091505060019003906000526020600020906002020160009091909190915060008201518160000190816100ae9190610669565b506020820151816001015550508080600101915050610035565b5033600160006101000a81548173ffffffffffffffffffffffffffffffffffffffff021916908373ffffffffffffffffffffffffffffffffffffffff16021790555042600381905550603c8161011e919061076a565b4261012991906107ac565b60048190555050506107e0565b6000604051905090565b600080fd5b600080fd5b600080fd5b6000601f19601f8301169050919050565b7f4e487b7100000000000000000000000000000000000000000000000000000000600052604160045260246000fd5b6101988261014f565b810181811067ffffffffffffffff821117156101b7576101b6610160565b5b80604052505050565b60006101ca610136565b90506101d6828261018f565b919050565b600067ffffffffffffffff8211156101f6576101f5610160565b5b602082029050602081019050919050565b600080fd5b600080fd5b600067ffffffffffffffff82111561022c5761022b610160565b5b6102358261014f565b9050602081019050919050565b60005b83811015610260578082015181840152602081019050610245565b60008484015250505050565b600061027f61027a84610211565b6101c0565b90508281526020810184848401111561029b5761029a61020c565b5b6102a6848285610242565b509392505050565b600082601f8301126102c3576102c261014a565b5b81516102d384826020860161026c565b91505092915050565b60006102ef6102ea846101db565b6101c0565b9050808382526020820190506020840283018581111561031257610311610207565b5b835b8181101561035957805167ffffffffffffffff8111156103375761033661014a565b5b80860161034489826102ae565b85526020850194505050602081019050610314565b5050509392505050565b600082601f8301126103785761037761014a565b5b81516103888482602086016102dc565b91505092915050565b6000819050919050565b6103a481610391565b81146103af57600080fd5b50565b6000815190506103c18161039b565b92915050565b600080604083850312156103de576103dd610140565b5b600083015167ffffffffffffffff8111156103fc576103fb610145565b5b61040885828601610363565b9250506020610419858286016103b2565b9150509250929050565b7f4e487b7100000000000000000000000000000000000000000000000000000000600052603260045260246000fd5b600081519050919050565b7f4e487b7100000000000000000000000000000000000000000000000000000000600052602260045260246000fd5b600060028204905060018216806104a457607f821691505b6020821081036104b7576104b661045d565b5b50919050565b60008190508160005260206000209050919050565b60006020601f8301049050919050565b600082821b905092915050565b60006008830261051f7fffffffffffffffffffffffffffffffffffffffffffffffffffffffffffffffff826104e2565b61052986836104e2565b95508019841693508086168417925050509392505050565b6000819050919050565b600061056661056161055c84610391565b610541565b610391565b9050919050565b6000819050919050565b6105808361054b565b61059461058c8261056d565b8484546104ef565b825550505050565b600090565b6105a961059c565b6105b4818484610577565b505050565b5b818110156105d8576105cd6000826105a1565b6001810190506105ba565b5050565b601f82111561061d576105ee816104bd565b6105f7846104d2565b81016020851015610606578190505b61061a610612856104d2565b8301826105b9565b50505b505050565b600082821c905092915050565b600061064060001984600802610622565b1980831691505092915050565b6000610659838361062f565b9150826002028217905092915050565b61067282610452565b67ffffffffffffffff81111561068b5761068a610160565b5b610695825461048c565b6106a08282856105dc565b600060209050601f8311600181146106d357600084156106c1578287015190505b6106cb858261064d565b865550610733565b601f1984166106e1866104bd565b60005b82811015610709578489015182556001820191506020850194506020810190506106e4565b868310156107265784890151610722601f89168261062f565b8355505b6001600288020188555050505b505050505050565b7f4e487b7100000000000000000000000000000000000000000000000000000000600052601160045260246000fd5b600061077582610391565b915061078083610391565b925082820261078e81610391565b915082820484148315176107a5576107a461073b565b5b5092915050565b60006107b782610391565b91506107c283610391565b92508282019050808211156107da576107d961073b565b5b92915050565b6111f5806107ef6000396000f3fe608060405234801561001057600080fd5b506004361061009e5760003560e01c806385a386351161006657806385a38635146101485780638da5cb5b1461016657806390a9ab9014610184578063a3ec138d146101a2578063efb98bcf146101d25761009e565b80630121b93f146100a3578063101158af146100bf5780633477ee2e146100dd578063462e91ec1461010e578063581c281c1461012a575b600080fd5b6100bd60048036038101906100b89190610725565b6101f0565b005b6100c7610354565b6040516100d49190610761565b60405180910390f35b6100f760048036038101906100f29190610725565b61035a565b60405161010592919061080c565b60405180910390f35b61012860048036038101906101239190610971565b610416565b005b61013261050c565b60405161013f91906109d5565b60405180910390f35b610150610527565b60405161015d9190610761565b60405180910390f35b61016e61052d565b60405161017b9190610a31565b60405180910390f35b61018c610553565b6040516101999190610ba4565b60405180910390f35b6101bc60048036038101906101b79190610bf2565b61064e565b6040516101c991906109d5565b60405180910390f35b6101da61066e565b6040516101e79190610761565b60405180910390f35b600260003373ffffffffffffffffffffffffffffffffffffffff1673ffffffffffffffffffffffffffffffffffffffff16815260200190815260200160002060009054906101000a900460ff161561027d576040517f08c379a000000000000000000000000000000000000000000000000000000000815260040161027490610c6b565b60405180910390fd5b60008054905081106102c4576040517f08c379a00000000000000000000000000000000000000000000000000000000081526004016102bb90610cd7565b60405180910390fd5b6001600082815481106102da576102d9610cf7565b5b906000526020600020906002020160010160008282546102fa9190610d55565b9250508190555060011515600260003373ffffffffffffffffffffffffffffffffffffffff1673ffffffffffffffffffffffffffffffffffffffff16815260200190815260200160002060009054906101000a9050505050565b60035481565b6000818154811061036a57600080fd5b906000526020600020906002020160009150905080600001805461038d90610db8565b80601f01602080910402602001604051908101604052809291908181526020018280546103b990610db8565b80156104065780601f106103db57610100808354040283529160200191610406565b820191906000526020600020905b8154815290600101906020018083116103e957829003601f168201915b5050505050908060010154905082565b600160009054906101000a900473ffffffffffffffffffffffffffffffffffffffff1673ffffffffffffffffffffffffffffffffffffffff163373ffffffffffffffffffffffffffffffffffffffff16146104a6576040517f08c379a000000000000000000000000000000000000000000000000000000000815260040161049d90610e5b565b60405180910390fd5b600060405180604001604052808381526020016000815250908060018154018082558091505060019003906000526020600020906002020160009091909190915060008201518160000190816104fc9190611027565b5060208201518160010155505050565b6000600354421015801561052257506004544211155b905090565b60045481565b600160009054906101000a900473ffffffffffffffffffffffffffffffffffffffff1681565b60606000805480602002602001604051908101604052809291908181526020016000905b8282101561064557838290600052602060002090600202016040518060400160405290816000820180546105aa90610db8565b80601f01602080910402602001604051908101604052809291908181526020018280546105d690610db8565b80156106235780601f106105f857610100808354040283529160200191610623565b820191906000526020600020905b81548152906001019060200180831161060657829003601f168201915b5050505050815260200160018201548152505081526020019060010190610577565b50505050905090565b60026020528060005260406000206000915054906101000a900460ff1681565b60006003544210156106b5576040517f08c379a00000000000000000000000000000000000000000000000000000000081526004016106ac9061116b565b60405180910390fd5b60045442106106c757600090506106d8565b426004546106d5919061118b565b90505b90565b6000604051905090565b600080fd5b600080fd5b6000819050919050565b610702816106ef565b811461070d57600080fd5b50565b60008135905061071f816106f9565b92915050565b60006020828403121561073b5761073a6106e5565b5b600061074984828501610710565b91505092915050565b61075b816106ef565b82525050565b60006020820190506107766000830184610752565b92915050565b600081519050919050565b600082825260208201905092915050565b60005b838110156107b657808201518184015260208101905061079b565b60008484015250505050565b6000601f19601f8301169050919050565b60006107de8261077c565b6107e88185610787565b93506107f8818560208601610798565b610801816107c2565b840191505092915050565b6000604082019050818103600083015261082681856107d3565b90506108356020830184610752565b9392505050565b600080fd5b600080fd5b7f4e487b7100000000000000000000000000000000000000000000000000000000600052604160045260246000fd5b61087e826107c2565b810181811067ffffffffffffffff8211171561089d5761089c610846565b5b80604052505050565b60006108b06106db565b90506108bc8282610875565b919050565b600067ffffffffffffffff8211156108dc576108db610846565b5b6108e5826107c2565b9050602081019050919050565b82818337600083830152505050565b600061091461090f846108c1565b6108a6565b9050828152602081018484840111156109305761092f610841565b5b61093b8482856108f2565b509392505050565b600082601f8301126109585761095761083c565b5b8135610968848260208601610901565b91505092915050565b600060208284031215610987576109866106e5565b5b600082013567ffffffffffffffff8111156109a5576109a46106ea565b5b6109b184828501610943565b91505092915050565b60008115159050919050565b6109cf816109ba565b82525050565b60006020820190506109ea60008301846109c6565b92915050565b600073ffffffffffffffffffffffffffffffffffffffff82169050919050565b6000610a1b826109f0565b9050919050565b610a2b81610a10565b82525050565b6000602082019050610a466000830184610a22565b92915050565b600081519050919050565b600082825260208201905092915050565b6000819050602082019050919050565b600082825260208201905092915050565b6000610a948261077c565b610a9e8185610a78565b9350610aae818560208601610798565b610ab7816107c2565b840191505092915050565b610acb816106ef565b82525050565b60006040830160008301518482036000860152610aee8282610a89565b9150506020830151610b036020860182610ac2565b508091505092915050565b6000610b1a8383610ad1565b905092915050565b6000602082019050919050565b6000610b3a82610a4c565b610b448185610a57565b935083602082028501610b5685610a68565b8060005b85811015610b925784840389528151610b738582610b0e565b9450610b7e83610b22565b925060208a01995050600181019050610b5a565b50829750879550505050505092915050565b60006020820190508181036000830152610bbe8184610b2f565b905092915050565b610bcf81610a10565b8114610bda57600080fd5b50565b600081359050610bec81610bc6565b92915050565b600060208284031215610c0857610c076106e5565b5b6000610c1684828501610bdd565b91505092915050565b7f596f75206861766520616c726561647920766f74656400000000000000000000600082015250565b6000610c55601683610787565b9150610c6082610c1f565b602082019050919050565b60006020820190508181036000830152610c8481610c48565b9050919050565b7f496e76616c69642063616e64696461746520696e646578000000000000000000600082015250565b6000610cc1601783610787565b9150610ccc82610c8b565b602082019050919050565b60006020820190508181036000830152610cf081610cb4565b9050919050565b7f4e487b7100000000000000000000000000000000000000000000000000000000600052603260045260246000fd5b7f4e487b7100000000000000000000000000000000000000000000000000000000600052601160045260246000fd5b6000610d60826106ef565b9150610d6b836106ef565b9250828201905080821115610d8357610d82610d26565b5b92915050565b7f4e487b7100000000000000000000000000000000000000000000000000000000600052602260045260246000fd5b60006002820490506001821680610dd057607f821691505b602082108103610de357610de2610d89565b5b50919050565b7f4f6e6c79206f776e65722063616e20706572666f726d2074686973206163746960008201527f6f6e000000000000000000000000000000000000000000000000000000000000602082015250565b6000610e45602283610787565b9150610e5082610de9565b604082019050919050565b60006020820190508181036000830152610e7481610e38565b9050919050565b60008190508160005260206000209050919050565b60006020601f8301049050919050565b600082821b905092915050565b600060088302610edd7fffffffffffffffffffffffffffffffffffffffffffffffffffffffffffffffff82610ea0565b610ee78683610ea0565b95508019841693508086168417925050509392505050565b6000819050919050565b6000610f24610f1f610f1a846106ef565b610eff565b6106ef565b9050919050565b6000819050919050565b610f3e83610f09565b610f52610f4a82610f2b565b848454610ead565b825550505050565b600090565b610f67610f5a565b610f72818484610f35565b505050565b5b81811015610f9657610f8b600082610f5f565b600181019050610f78565b5050565b601f821115610fdb57610fac81610e7b565b610fb584610e90565b81016020851015610fc4578190505b610fd8610fd085610e90565b830182610f77565b50505b505050565b600082821c905092915050565b6000610ffe60001984600802610fe0565b1980831691505092915050565b60006110178383610fed565b9150826002028217905092915050565b6110308261077c565b67ffffffffffffffff81111561104957611048610846565b5b6110538254610db8565b61105e828285610f9a565b600060209050601f831160018114611091576000841561107f578287015190505b611089858261100b565b8655506110f1565b601f19841661109f86610e7b565b60005b828110156110c7578489015182556001820191506020850194506020810190506110a2565b868310156110e457848901516110e0601f891682610fed565b8355505b6001600288020188555050505b505050505050565b7f566f74696e6720706572696f6420686173206e6f74207374617274656420796560008201527f7400000000000000000000000000000000000000000000000000000000000000602082015250565b6000611155602183610787565b9150611160826110f9565b604082019050919050565b6000602082019050818103600083015261118481611148565b9050919050565b6000611196826106ef565b91506111a1836106ef565b92508282039050818111156111b9576111b8610d26565b5b9291505056fea2646970667358221220d6a3dfb321c443689224417e6d02b4c34c435600bf401c2cadf5581a25340d7c64736f6c634300081c0033","opcodes":"PUSH1 0x80 PUSH1 0x40 MSTORE CALLVALUE DUP1 ISZERO PUSH2 0x10 JUMPI PUSH1 0x0 DUP1 REVERT JUMPDEST POP PUSH1 0x40 MLOAD PUSH2 0x19E4 CODESIZE SUB DUP1 PUSH2 0x19E4 DUP4 CODECOPY DUP2 DUP2 ADD PUSH1 0x40 MSTORE DUP2 ADD SWAP1 PUSH2 0x32 SWAP2 SWAP1 PUSH2 0x3C7 JUMP JUMPDEST PUSH1 0x0 JUMPDEST DUP3 MLOAD DUP2 LT ISZERO PUSH2 0xC8 JUMPI PUSH1 0x0 PUSH1 0x40 MLOAD DUP1 PUSH1 0x40 ADD PUSH1 0x40 MSTORE DUP1 DUP6 DUP5 DUP2 MLOAD DUP2 LT PUSH2 0x5E JUMPI PUSH2 0x5D PUSH2 0x423 JUMP JUMPDEST JUMPDEST PUSH1 0x20 MUL PUSH1 0x20 ADD ADD MLOAD DUP2 MSTORE PUSH1 0x20 ADD PUSH1 0x0 DUP2 MSTORE POP SWAP1 DUP1 PUSH1 0x1 DUP2 SLOAD ADD DUP1 DUP3 SSTORE DUP1 SWAP2 POP POP PUSH1 0x1 SWAP1 SUB SWAP1 PUSH1 0x0 MSTORE PUSH1 0x20 PUSH1 0x0 KECCAK256 SWAP1 PUSH1 0x2 MUL ADD PUSH1 0x0 SWAP1 SWAP2 SWAP1 SWAP2 SWAP1 SWAP2 POP PUSH1 0x0 DUP3 ADD MLOAD DUP2 PUSH1 0x0 ADD SWAP1 DUP2 PUSH2 0xAE SWAP2 SWAP1 PUSH2 0x669 JUMP JUMPDEST POP PUSH1 0x20 DUP3 ADD MLOAD DUP2 PUSH1 0x1 ADD SSTORE POP POP DUP1 DUP1 PUSH1 0x1 ADD SWAP2 POP POP PUSH2 0x35 JUMP JUMPDEST POP CALLER PUSH1 0x1 PUSH1 0x0 PUSH2 0x100 EXP DUP2 SLOAD DUP2 PUSH20 0xFFFFFFFFFFFFFFFFFFFFFFFFFFFFFFFFFFFFFFFF MUL NOT AND SWAP1 DUP4 PUSH20 0xFFFFFFFFFFFFFFFFFFFFFFFFFFFFFFFFFFFFFFFF AND MUL OR SWAP1 SSTORE POP TIMESTAMP PUSH1 0x3 DUP2 SWAP1 SSTORE POP PUSH1 0x3C DUP2 PUSH2 0x11E SWAP2 SWAP1 PUSH2 0x76A JUMP JUMPDEST TIMESTAMP PUSH2 0x129 SWAP2 SWAP1 PUSH2 0x7AC JUMP JUMPDEST PUSH1 0x4 DUP2 SWAP1 SSTORE POP POP POP PUSH2 0x7E0 JUMP JUMPDEST PUSH1 0x0 PUSH1 0x40 MLOAD SWAP1 POP SWAP1 JUMP JUMPDEST PUSH1 0x0 DUP1 REVERT JUMPDEST PUSH1 0x0 DUP1 REVERT JUMPDEST PUSH1 0x0 DUP1 REVERT JUMPDEST PUSH1 0x0 PUSH1 0x1F NOT PUSH1 0x1F DUP4 ADD AND SWAP1 POP SWAP2 SWAP1 POP JUMP JUMPDEST PUSH32 0x4E487B7100000000000000000000000000000000000000000000000000000000 PUSH1 0x0 MSTORE PUSH1 0x41 PUSH1 0x4 MSTORE PUSH1 0x24 PUSH1 0x0 REVERT JUMPDEST PUSH2 0x198 DUP3 PUSH2 0x14F JUMP JUMPDEST DUP2 ADD DUP2 DUP2 LT PUSH8 0xFFFFFFFFFFFFFFFF DUP3 GT OR ISZERO PUSH2 0x1B7 JUMPI PUSH2 0x1B6 PUSH2 0x160 JUMP JUMPDEST JUMPDEST DUP1 PUSH1 0x40 MSTORE POP POP POP JUMP JUMPDEST PUSH1 0x0 PUSH2 0x1CA PUSH2 0x136 JUMP JUMPDEST SWAP1 POP PUSH2 0x1D6 DUP3 DUP3 PUSH2 0x18F JUMP JUMPDEST SWAP2 SWAP1 POP JUMP JUMPDEST PUSH1 0x0 PUSH8 0xFFFFFFFFFFFFFFFF DUP3 GT ISZERO PUSH2 0x1F6 JUMPI PUSH2 0x1F5 PUSH2 0x160 JUMP JUMPDEST JUMPDEST PUSH1 0x20 DUP3 MUL SWAP1 POP PUSH1 0x20 DUP2 ADD SWAP1 POP SWAP2 SWAP1 POP JUMP JUMPDEST PUSH1 0x0 DUP1 REVERT JUMPDEST PUSH1 0x0 DUP1 REVERT JUMPDEST PUSH1 0x0 PUSH8 0xFFFFFFFFFFFFFFFF DUP3 GT ISZERO PUSH2 0x22C JUMPI PUSH2 0x22B PUSH2 0x160 JUMP JUMPDEST JUMPDEST PUSH2 0x235 DUP3 PUSH2 0x14F JUMP JUMPDEST SWAP1 POP PUSH1 0x20 DUP2 ADD SWAP1 POP SWAP2 SWAP1 POP JUMP JUMPDEST PUSH1 0x0 JUMPDEST DUP4 DUP2 LT ISZERO PUSH2 0x260 JUMPI DUP1 DUP3 ADD MLOAD DUP2 DUP5 ADD MSTORE PUSH1 0x20 DUP2 ADD SWAP1 POP PUSH2 0x245 JUMP JUMPDEST PUSH1 0x0 DUP5 DUP5 ADD MSTORE POP POP POP POP JUMP JUMPDEST PUSH1 0x0 PUSH2 0x27F PUSH2 0x27A DUP5 PUSH2 0x211 JUMP JUMPDEST PUSH2 0x1C0 JUMP JUMPDEST SWAP1 POP DUP3 DUP2 MSTORE PUSH1 0x20 DUP2 ADD DUP5 DUP5 DUP5 ADD GT ISZERO PUSH2 0x29B JUMPI PUSH2 0x29A PUSH2 0x20C JUMP JUMPDEST JUMPDEST PUSH2 0x2A6 DUP5 DUP3 DUP6 PUSH2 0x242 JUMP JUMPDEST POP SWAP4 SWAP3 POP POP POP JUMP JUMPDEST PUSH1 0x0 DUP3 PUSH1 0x1F DUP4 ADD SLT PUSH2 0x2C3 JUMPI PUSH2 0x2C2 PUSH2 0x14A JUMP JUMPDEST JUMPDEST DUP2 MLOAD PUSH2 0x2D3 DUP5 DUP3 PUSH1 0x20 DUP7 ADD PUSH2 0x26C JUMP JUMPDEST SWAP2 POP POP SWAP3 SWAP2 POP POP JUMP JUMPDEST PUSH1 0x0 PUSH2 0x2EF PUSH2 0x2EA DUP5 PUSH2 0x1DB JUMP JUMPDEST PUSH2 0x1C0 JUMP JUMPDEST SWAP1 POP DUP1 DUP4 DUP3 MSTORE PUSH1 0x20 DUP3 ADD SWAP1 POP PUSH1 0x20 DUP5 MUL DUP4 ADD DUP6 DUP2 GT ISZERO PUSH2 0x312 JUMPI PUSH2 0x311 PUSH2 0x207 JUMP JUMPDEST JUMPDEST DUP4 JUMPDEST DUP2 DUP2 LT ISZERO PUSH2 0x359 JUMPI DUP1 MLOAD PUSH8 0xFFFFFFFFFFFFFFFF DUP2 GT ISZERO PUSH2 0x337 JUMPI PUSH2 0x336 PUSH2 0x14A JUMP JUMPDEST JUMPDEST DUP1 DUP7 ADD PUSH2 0x344 DUP10 DUP3 PUSH2 0x2AE JUMP JUMPDEST DUP6 MSTORE PUSH1 0x20 DUP6 ADD SWAP5 POP POP POP PUSH1 0x20 DUP2 ADD SWAP1 POP PUSH2 0x314 JUMP JUMPDEST POP POP POP SWAP4 SWAP3 POP POP POP JUMP JUMPDEST PUSH1 0x0 DUP3 PUSH1 0x1F DUP4 ADD SLT PUSH2 0x378 JUMPI PUSH2 0x377 PUSH2 0x14A JUMP JUMPDEST JUMPDEST DUP2 MLOAD PUSH2 0x388 DUP5 DUP3 PUSH1 0x20 DUP7 ADD PUSH2 0x2DC JUMP JUMPDEST SWAP2 POP POP SWAP3 SWAP2 POP POP JUMP JUMPDEST PUSH1 0x0 DUP2 SWAP1 POP SWAP2 SWAP1 POP JUMP JUMPDEST PUSH2 0x3A4 DUP2 PUSH2 0x391 JUMP JUMPDEST DUP2 EQ PUSH2 0x3AF JUMPI PUSH1 0x0 DUP1 REVERT JUMPDEST POP JUMP JUMPDEST PUSH1 0x0 DUP2 MLOAD SWAP1 POP PUSH2 0x3C1 DUP2 PUSH2 0x39B JUMP JUMPDEST SWAP3 SWAP2 POP POP JUMP JUMPDEST PUSH1 0x0 DUP1 PUSH1 0x40 DUP4 DUP6 SUB SLT ISZERO PUSH2 0x3DE JUMPI PUSH2 0x3DD PUSH2 0x140 JUMP JUMPDEST JUMPDEST PUSH1 0x0 DUP4 ADD MLOAD PUSH8 0xFFFFFFFFFFFFFFFF DUP2 GT ISZERO PUSH2 0x3FC JUMPI PUSH2 0x3FB PUSH2 0x145 JUMP JUMPDEST JUMPDEST PUSH2 0x408 DUP6 DUP3 DUP7 ADD PUSH2 0x363 JUMP JUMPDEST SWAP3 POP POP PUSH1 0x20 PUSH2 0x419 DUP6 DUP3 DUP7 ADD PUSH2 0x3B2 JUMP JUMPDEST SWAP2 POP POP SWAP3 POP SWAP3 SWAP1 POP JUMP JUMPDEST PUSH32 0x4E487B7100000000000000000000000000000000000000000000000000000000 PUSH1 0x0 MSTORE PUSH1 0x32 PUSH1 0x4 MSTORE PUSH1 0x24 PUSH1 0x0 REVERT JUMPDEST PUSH1 0x0 DUP2 MLOAD SWAP1 POP SWAP2 SWAP1 POP JUMP JUMPDEST PUSH32 0x4E487B7100000000000000000000000000000000000000000000000000000000 PUSH1 0x0 MSTORE PUSH1 0x22 PUSH1 0x4 MSTORE PUSH1 0x24 PUSH1 0x0 REVERT JUMPDEST PUSH1 0x0 PUSH1 0x2 DUP3 DIV SWAP1 POP PUSH1 0x1 DUP3 AND DUP1 PUSH2 0x4A4 JUMPI PUSH1 0x7F DUP3 AND SWAP2 POP JUMPDEST PUSH1 0x20 DUP3 LT DUP2 SUB PUSH2 0x4B7 JUMPI PUSH2 0x4B6 PUSH2 0x45D JUMP JUMPDEST JUMPDEST POP SWAP2 SWAP1 POP JUMP JUMPDEST PUSH1 0x0 DUP2 SWAP1 POP DUP2 PUSH1 0x0 MSTORE PUSH1 0x20 PUSH1 0x0 KECCAK256 SWAP1 POP SWAP2 SWAP1 POP JUMP JUMPDEST PUSH1 0x0 PUSH1 0x20 PUSH1 0x1F DUP4 ADD DIV SWAP1 POP SWAP2 SWAP1 POP JUMP JUMPDEST PUSH1 0x0 DUP3 DUP3 SHL SWAP1 POP SWAP3 SWAP2 POP POP JUMP JUMPDEST PUSH1 0x0 PUSH1 0x8 DUP4 MUL PUSH2 0x51F PUSH32 0xFFFFFFFFFFFFFFFFFFFFFFFFFFFFFFFFFFFFFFFFFFFFFFFFFFFFFFFFFFFFFFFF DUP3 PUSH2 0x4E2 JUMP JUMPDEST PUSH2 0x529 DUP7 DUP4 PUSH2 0x4E2 JUMP JUMPDEST SWAP6 POP DUP1 NOT DUP5 AND SWAP4 POP DUP1 DUP7 AND DUP5 OR SWAP3 POP POP POP SWAP4 SWAP3 POP POP POP JUMP JUMPDEST PUSH1 0x0 DUP2 SWAP1 POP SWAP2 SWAP1 POP JUMP JUMPDEST PUSH1 0x0 PUSH2 0x566 PUSH2 0x561 PUSH2 0x55C DUP5 PUSH2 0x391 JUMP JUMPDEST PUSH2 0x541 JUMP JUMPDEST PUSH2 0x391 JUMP JUMPDEST SWAP1 POP SWAP2 SWAP1 POP JUMP JUMPDEST PUSH1 0x0 DUP2 SWAP1 POP SWAP2 SWAP1 POP JUMP JUMPDEST PUSH2 0x580 DUP4 PUSH2 0x54B JUMP JUMPDEST PUSH2 0x594 PUSH2 0x58C DUP3 PUSH2 0x56D JUMP JUMPDEST DUP5 DUP5 SLOAD PUSH2 0x4EF JUMP JUMPDEST DUP3 SSTORE POP POP POP POP JUMP JUMPDEST PUSH1 0x0 SWAP1 JUMP JUMPDEST PUSH2 0x5A9 PUSH2 0x59C JUMP JUMPDEST PUSH2 0x5B4 DUP2 DUP5 DUP5 PUSH2 0x577 JUMP JUMPDEST POP POP POP JUMP JUMPDEST JUMPDEST DUP2 DUP2 LT ISZERO PUSH2 0x5D8 JUMPI PUSH2 0x5CD PUSH1 0x0 DUP3 PUSH2 0x5A1 JUMP JUMPDEST PUSH1 0x1 DUP2 ADD SWAP1 POP PUSH2 0x5BA JUMP JUMPDEST POP POP JUMP JUMPDEST PUSH1 0x1F DUP3 GT ISZERO PUSH2 0x61D JUMPI PUSH2 0x5EE DUP2 PUSH2 0x4BD JUMP JUMPDEST PUSH2 0x5F7 DUP5 PUSH2 0x4D2 JUMP JUMPDEST DUP2 ADD PUSH1 0x20 DUP6 LT ISZERO PUSH2 0x606 JUMPI DUP2 SWAP1 POP JUMPDEST PUSH2 0x61A PUSH2 0x612 DUP6 PUSH2 0x4D2 JUMP JUMPDEST DUP4 ADD DUP3 PUSH2 0x5B9 JUMP JUMPDEST POP POP JUMPDEST POP POP POP JUMP JUMPDEST PUSH1 0x0 DUP3 DUP3 SHR SWAP1 POP SWAP3 SWAP2 POP POP JUMP JUMPDEST PUSH1 0x0 PUSH2 0x640 PUSH1 0x0 NOT DUP5 PUSH1 0x8 MUL PUSH2 0x622 JUMP JUMPDEST NOT DUP1 DUP4 AND SWAP2 POP POP SWAP3 SWAP2 POP POP JUMP JUMPDEST PUSH1 0x0 PUSH2 0x659 DUP4 DUP4 PUSH2 0x62F JUMP JUMPDEST SWAP2 POP DUP3 PUSH1 0x2 MUL DUP3 OR SWAP1 POP SWAP3 SWAP2 POP POP JUMP JUMPDEST PUSH2 0x672 DUP3 PUSH2 0x452 JUMP JUMPDEST PUSH8 0xFFFFFFFFFFFFFFFF DUP2 GT ISZERO PUSH2 0x68B JUMPI PUSH2 0x68A PUSH2 0x160 JUMP JUMPDEST JUMPDEST PUSH2 0x695 DUP3 SLOAD PUSH2 0x48C JUMP JUMPDEST PUSH2 0x6A0 DUP3 DUP3 DUP6 PUSH2 0x5DC JUMP JUMPDEST PUSH1 0x0 PUSH1 0x20 SWAP1 POP PUSH1 0x1F DUP4 GT PUSH1 0x1 DUP2 EQ PUSH2 0x6D3 JUMPI PUSH1 0x0 DUP5 ISZERO PUSH2 0x6C1 JUMPI DUP3 DUP8 ADD MLOAD SWAP1 POP JUMPDEST PUSH2 0x6CB DUP6 DUP3 PUSH2 0x64D JUMP JUMPDEST DUP7 SSTORE POP PUSH2 0x733 JUMP JUMPDEST PUSH1 0x1F NOT DUP5 AND PUSH2 0x6E1 DUP7 PUSH2 0x4BD JUMP JUMPDEST PUSH1 0x0 JUMPDEST DUP3 DUP2 LT ISZERO PUSH2 0x709 JUMPI DUP5 DUP10 ADD MLOAD DUP3 SSTORE PUSH1 0x1 DUP3 ADD SWAP2 POP PUSH1 0x20 DUP6 ADD SWAP5 POP PUSH1 0x20 DUP2 ADD SWAP1 POP PUSH2 0x6E4 JUMP JUMPDEST DUP7 DUP4 LT ISZERO PUSH2 0x726 JUMPI DUP5 DUP10 ADD MLOAD PUSH2 0x722 PUSH1 0x1F DUP10 AND DUP3 PUSH2 0x62F JUMP JUMPDEST DUP4 SSTORE POP JUMPDEST PUSH1 0x1 PUSH1 0x2 DUP9 MUL ADD DUP9 SSTORE POP POP POP JUMPDEST POP POP POP POP POP POP JUMP JUMPDEST PUSH32 0x4E487B7100000000000000000000000000000000000000000000000000000000 PUSH1 0x0 MSTORE PUSH1 0x11 PUSH1 0x4 MSTORE PUSH1 0x24 PUSH1 0x0 REVERT JUMPDEST PUSH1 0x0 PUSH2 0x775 DUP3 PUSH2 0x391 JUMP JUMPDEST SWAP2 POP PUSH2 0x780 DUP4 PUSH2 0x391 JUMP JUMPDEST SWAP3 POP DUP3 DUP3 MUL PUSH2 0x78E DUP2 PUSH2 0x391 JUMP JUMPDEST SWAP2 POP DUP3 DUP3 DIV DUP5 EQ DUP4 ISZERO OR PUSH2 0x7A5 JUMPI PUSH2 0x7A4 PUSH2 0x73B JUMP JUMPDEST JUMPDEST POP SWAP3 SWAP2 POP POP JUMP JUMPDEST PUSH1 0x0 PUSH2 0x7B7 DUP3 PUSH2 0x391 JUMP JUMPDEST SWAP2 POP PUSH2 0x7C2 DUP4 PUSH2 0x391 JUMP JUMPDEST SWAP3 POP DUP3 DUP3 ADD SWAP1 POP DUP1 DUP3 GT ISZERO PUSH2 0x7DA JUMPI PUSH2 0x7D9 PUSH2 0x73B JUMP JUMPDEST JUMPDEST SWAP3 SWAP2 POP POP JUMP JUMPDEST PUSH2 0x11F5 DUP1 PUSH2 0x7EF PUSH1 0x0 CODECOPY PUSH1 0x0 RETURN INVALID PUSH1 0x80 PUSH1 0x40 MSTORE CALLVALUE DUP1 ISZERO PUSH2 0x10 JUMPI PUSH1 0x0 DUP1 REVERT JUMPDEST POP PUSH1 0x4 CALLDATASIZE LT PUSH2 0x9E JUMPI PUSH1 0x0 CALLDATALOAD PUSH1 0xE0 SHR DUP1 PUSH4 0x85A38635 GT PUSH2 0x66 JUMPI DUP1 PUSH4 0x85A38635 EQ PUSH2 0x148 JUMPI DUP1 PUSH4 0x8DA5CB5B EQ PUSH2 0x166 JUMPI DUP1 PUSH4 0x90A9AB90 EQ PUSH2 0x184 JUMPI DUP1 PUSH4 0xA3EC138D EQ PUSH2 0x1A2 JUMPI DUP1 PUSH4 0xEFB98BCF EQ PUSH2 0x1D2 JUMPI PUSH2 0x9E JUMP JUMPDEST DUP1 PUSH4 0x121B93F EQ PUSH2 0xA3 JUMPI DUP1 PUSH4 0x101158AF EQ PUSH2 0xBF JUMPI DUP1 PUSH4 0x3477EE2E EQ PUSH2 0xDD JUMPI DUP1 PUSH4 0x462E91EC EQ PUSH2 0x10E JUMPI DUP1 PUSH4 0x581C281C EQ PUSH2 0x12A JUMPI JUMPDEST PUSH1 0x0 DUP1 REVERT JUMPDEST PUSH2 0xBD PUSH1 0x4 DUP1 CALLDATASIZE SUB DUP2 ADD SWAP1 PUSH2 0xB8 SWAP2 SWAP1 PUSH2 0x725 JUMP JUMPDEST PUSH2 0x1F0 JUMP JUMPDEST STOP JUMPDEST PUSH2 0xC7 PUSH2 0x354 JUMP JUMPDEST PUSH1 0x40 MLOAD PUSH2 0xD4 SWAP2 SWAP1 PUSH2 0x761 JUMP JUMPDEST PUSH1 0x40 MLOAD DUP1 SWAP2 SUB SWAP1 RETURN JUMPDEST PUSH2 0xF7 PUSH1 0x4 DUP1 CALLDATASIZE SUB DUP2 ADD SWAP1 PUSH2 0xF2 SWAP2 SWAP1 PUSH2 0x725 JUMP JUMPDEST PUSH2 0x35A JUMP JUMPDEST PUSH1 0x40 MLOAD PUSH2 0x105 SWAP3 SWAP2 SWAP1 PUSH2 0x80C JUMP JUMPDEST PUSH1 0x40 MLOAD DUP1 SWAP2 SUB SWAP1 RETURN JUMPDEST PUSH2 0x128 PUSH1 0x4 DUP1 CALLDATASIZE SUB DUP2 ADD SWAP1 PUSH2 0x123 SWAP2 SWAP1 PUSH2 0x971 JUMP JUMPDEST PUSH2 0x416 JUMP JUMPDEST STOP JUMPDEST PUSH2 0x132 PUSH2 0x50C JUMP JUMPDEST PUSH1 0x40 MLOAD PUSH2 0x13F SWAP2 SWAP1 PUSH2 0x9D5 JUMP JUMPDEST PUSH1 0x40 MLOAD DUP1 SWAP2 SUB SWAP1 RETURN JUMPDEST PUSH2 0x150 PUSH2 0x527 JUMP JUMPDEST PUSH1 0x40 MLOAD PUSH2 0x15D SWAP2 SWAP1 PUSH2 0x761 JUMP JUMPDEST PUSH1 0x40 MLOAD DUP1 SWAP2 SUB SWAP1 RETURN JUMPDEST PUSH2 0x16E PUSH2 0x52D JUMP JUMPDEST PUSH1 0x40 MLOAD PUSH2 0x17B SWAP2 SWAP1 PUSH2 0xA31 JUMP JUMPDEST PUSH1 0x40 MLOAD DUP1 SWAP2 SUB SWAP1 RETURN JUMPDEST PUSH2 0x18C PUSH2 0x553 JUMP JUMPDEST PUSH1 0x40 MLOAD PUSH2 0x199 SWAP2 SWAP1 PUSH2 0xBA4 JUMP JUMPDEST PUSH1 0x40 MLOAD DUP1 SWAP2 SUB SWAP1 RETURN JUMPDEST PUSH2 0x1BC PUSH1 0x4 DUP1 CALLDATASIZE SUB DUP2 ADD SWAP1 PUSH2 0x1B7 SWAP2 SWAP1 PUSH2 0xBF2 JUMP JUMPDEST PUSH2 0x64E JUMP JUMPDEST PUSH1 0x40 MLOAD PUSH2 0x1C9 SWAP2 SWAP1 PUSH2 0x9D5 JUMP JUMPDEST PUSH1 0x40 MLOAD DUP1 SWAP2 SUB SWAP1 RETURN JUMPDEST PUSH2 0x1DA PUSH2 0x66E JUMP JUMPDEST PUSH1 0x40 MLOAD PUSH2 0x1E7 SWAP2 SWAP1 PUSH2 0x761 JUMP JUMPDEST PUSH1 0x40 MLOAD DUP1 SWAP2 SUB SWAP1 RETURN JUMPDEST PUSH1 0x2 PUSH1 0x0 CALLER PUSH20 0xFFFFFFFFFFFFFFFFFFFFFFFFFFFFFFFFFFFFFFFF AND PUSH20 0xFFFFFFFFFFFFFFFFFFFFFFFFFFFFFFFFFFFFFFFF AND DUP2 MSTORE PUSH1 0x20 ADD SWAP1 DUP2 MSTORE PUSH1 0x20 ADD PUSH1 0x0 KECCAK256 PUSH1 0x0 SWAP1 SLOAD SWAP1 PUSH2 0x100 EXP SWAP1 DIV PUSH1 0xFF AND ISZERO PUSH2 0x27D JUMPI PUSH1 0x40 MLOAD PUSH32 0x8C379A000000000000000000000000000000000000000000000000000000000 DUP2 MSTORE PUSH1 0x4 ADD PUSH2 0x274 SWAP1 PUSH2 0xC6B JUMP JUMPDEST PUSH1 0x40 MLOAD DUP1 SWAP2 SUB SWAP1 REVERT JUMPDEST PUSH1 0x0 DUP1 SLOAD SWAP1 POP DUP2 LT PUSH2 0x2C4 JUMPI PUSH1 0x40 MLOAD PUSH32 0x8C379A000000000000000000000000000000000000000000000000000000000 DUP2 MSTORE PUSH1 0x4 ADD PUSH2 0x2BB SWAP1 PUSH2 0xCD7 JUMP JUMPDEST PUSH1 0x40 MLOAD DUP1 SWAP2 SUB SWAP1 REVERT JUMPDEST PUSH1 0x1 PUSH1 0x0 DUP3 DUP2 SLOAD DUP2 LT PUSH2 0x2DA JUMPI PUSH2 0x2D9 PUSH2 0xCF7 JUMP JUMPDEST JUMPDEST SWAP1 PUSH1 0x0 MSTORE PUSH1 0x20 PUSH1 0x0 KECCAK256 SWAP1 PUSH1 0x2 MUL ADD PUSH1 0x1 ADD PUSH1 0x0 DUP3 DUP3 SLOAD PUSH2 0x2FA SWAP2 SWAP1 PUSH2 0xD55 JUMP JUMPDEST SWAP3 POP POP DUP2 SWAP1 SSTORE POP PUSH1 0x1 ISZERO ISZERO PUSH1 0x2 PUSH1 0x0 CALLER PUSH20 0xFFFFFFFFFFFFFFFFFFFFFFFFFFFFFFFFFFFFFFFF AND PUSH20 0xFFFFFFFFFFFFFFFFFFFFFFFFFFFFFFFFFFFFFFFF AND DUP2 MSTORE PUSH1 0x20 ADD SWAP1 DUP2 MSTORE PUSH1 0x20 ADD PUSH1 0x0 KECCAK256 PUSH1 0x0 SWAP1 SLOAD SWAP1 PUSH2 0x100 EXP SWAP1 POP POP POP POP JUMP JUMPDEST PUSH1 0x3 SLOAD DUP2 JUMP JUMPDEST PUSH1 0x0 DUP2 DUP2 SLOAD DUP2 LT PUSH2 0x36A JUMPI PUSH1 0x0 DUP1 REVERT JUMPDEST SWAP1 PUSH1 0x0 MSTORE PUSH1 0x20 PUSH1 0x0 KECCAK256 SWAP1 PUSH1 0x2 MUL ADD PUSH1 0x0 SWAP2 POP SWAP1 POP DUP1 PUSH1 0x0 ADD DUP1 SLOAD PUSH2 0x38D SWAP1 PUSH2 0xDB8 JUMP JUMPDEST DUP1 PUSH1 0x1F ADD PUSH1 0x20 DUP1 SWAP2 DIV MUL PUSH1 0x20 ADD PUSH1 0x40 MLOAD SWAP1 DUP2 ADD PUSH1 0x40 MSTORE DUP1 SWAP3 SWAP2 SWAP1 DUP2 DUP2 MSTORE PUSH1 0x20 ADD DUP3 DUP1 SLOAD PUSH2 0x3B9 SWAP1 PUSH2 0xDB8 JUMP JUMPDEST DUP1 ISZERO PUSH2 0x406 JUMPI DUP1 PUSH1 0x1F LT PUSH2 0x3DB JUMPI PUSH2 0x100 DUP1 DUP4 SLOAD DIV MUL DUP4 MSTORE SWAP2 PUSH1 0x20 ADD SWAP2 PUSH2 0x406 JUMP JUMPDEST DUP3 ADD SWAP2 SWAP1 PUSH1 0x0 MSTORE PUSH1 0x20 PUSH1 0x0 KECCAK256 SWAP1 JUMPDEST DUP2 SLOAD DUP2 MSTORE SWAP1 PUSH1 0x1 ADD SWAP1 PUSH1 0x20 ADD DUP1 DUP4 GT PUSH2 0x3E9 JUMPI DUP3 SWAP1 SUB PUSH1 0x1F AND DUP3 ADD SWAP2 JUMPDEST POP POP POP POP POP SWAP1 DUP1 PUSH1 0x1 ADD SLOAD SWAP1 POP DUP3 JUMP JUMPDEST PUSH1 0x1 PUSH1 0x0 SWAP1 SLOAD SWAP1 PUSH2 0x100 EXP SWAP1 DIV PUSH20 0xFFFFFFFFFFFFFFFFFFFFFFFFFFFFFFFFFFFFFFFF AND PUSH20 0xFFFFFFFFFFFFFFFFFFFFFFFFFFFFFFFFFFFFFFFF AND CALLER PUSH20 0xFFFFFFFFFFFFFFFFFFFFFFFFFFFFFFFFFFFFFFFF AND EQ PUSH2 0x4A6 JUMPI PUSH1 0x40 MLOAD PUSH32 0x8C379A000000000000000000000000000000000000000000000000000000000 DUP2 MSTORE PUSH1 0x4 ADD PUSH2 0x49D SWAP1 PUSH2 0xE5B JUMP JUMPDEST PUSH1 0x40 MLOAD DUP1 SWAP2 SUB SWAP1 REVERT JUMPDEST PUSH1 0x0 PUSH1 0x40 MLOAD DUP1 PUSH1 0x40 ADD PUSH1 0x40 MSTORE DUP1 DUP4 DUP2 MSTORE PUSH1 0x20 ADD PUSH1 0x0 DUP2 MSTORE POP SWAP1 DUP1 PUSH1 0x1 DUP2 SLOAD ADD DUP1 DUP3 SSTORE DUP1 SWAP2 POP POP PUSH1 0x1 SWAP1 SUB SWAP1 PUSH1 0x0 MSTORE PUSH1 0x20 PUSH1 0x0 KECCAK256 SWAP1 PUSH1 0x2 MUL ADD PUSH1 0x0 SWAP1 SWAP2 SWAP1 SWAP2 SWAP1 SWAP2 POP PUSH1 0x0 DUP3 ADD MLOAD DUP2 PUSH1 0x0 ADD SWAP1 DUP2 PUSH2 0x4FC SWAP2 SWAP1 PUSH2 0x1027 JUMP JUMPDEST POP PUSH1 0x20 DUP3 ADD MLOAD DUP2 PUSH1 0x1 ADD SSTORE POP POP POP JUMP JUMPDEST PUSH1 0x0 PUSH1 0x3 SLOAD TIMESTAMP LT ISZERO DUP1 ISZERO PUSH2 0x522 JUMPI POP PUSH1 0x4 SLOAD TIMESTAMP GT ISZERO JUMPDEST SWAP1 POP SWAP1 JUMP JUMPDEST PUSH1 0x4 SLOAD DUP2 JUMP JUMPDEST PUSH1 0x1 PUSH1 0x0 SWAP1 SLOAD SWAP1 PUSH2 0x100 EXP SWAP1 DIV PUSH20 0xFFFFFFFFFFFFFFFFFFFFFFFFFFFFFFFFFFFFFFFF AND DUP2 JUMP JUMPDEST PUSH1 0x60 PUSH1 0x0 DUP1 SLOAD DUP1 PUSH1 0x20 MUL PUSH1 0x20 ADD PUSH1 0x40 MLOAD SWAP1 DUP2 ADD PUSH1 0x40 MSTORE DUP1 SWAP3 SWAP2 SWAP1 DUP2 DUP2 MSTORE PUSH1 0x20 ADD PUSH1 0x0 SWAP1 JUMPDEST DUP3 DUP3 LT ISZERO PUSH2 0x645 JUMPI DUP4 DUP3 SWAP1 PUSH1 0x0 MSTORE PUSH1 0x20 PUSH1 0x0 KECCAK256 SWAP1 PUSH1 0x2 MUL ADD PUSH1 0x40 MLOAD DUP1 PUSH1 0x40 ADD PUSH1 0x40 MSTORE SWAP1 DUP2 PUSH1 0x0 DUP3 ADD DUP1 SLOAD PUSH2 0x5AA SWAP1 PUSH2 0xDB8 JUMP JUMPDEST DUP1 PUSH1 0x1F ADD PUSH1 0x20 DUP1 SWAP2 DIV MUL PUSH1 0x20 ADD PUSH1 0x40 MLOAD SWAP1 DUP2 ADD PUSH1 0x40 MSTORE DUP1 SWAP3 SWAP2 SWAP1 DUP2 DUP2 MSTORE PUSH1 0x20 ADD DUP3 DUP1 SLOAD PUSH2 0x5D6 SWAP1 PUSH2 0xDB8 JUMP JUMPDEST DUP1 ISZERO PUSH2 0x623 JUMPI DUP1 PUSH1 0x1F LT PUSH2 0x5F8 JUMPI PUSH2 0x100 DUP1 DUP4 SLOAD DIV MUL DUP4 MSTORE SWAP2 PUSH1 0x20 ADD SWAP2 PUSH2 0x623 JUMP JUMPDEST DUP3 ADD SWAP2 SWAP1 PUSH1 0x0 MSTORE PUSH1 0x20 PUSH1 0x0 KECCAK256 SWAP1 JUMPDEST DUP2 SLOAD DUP2 MSTORE SWAP1 PUSH1 0x1 ADD SWAP1 PUSH1 0x20 ADD DUP1 DUP4 GT PUSH2 0x606 JUMPI DUP3 SWAP1 SUB PUSH1 0x1F AND DUP3 ADD SWAP2 JUMPDEST POP POP POP POP POP DUP2 MSTORE PUSH1 0x20 ADD PUSH1 0x1 DUP3 ADD SLOAD DUP2 MSTORE POP POP DUP2 MSTORE PUSH1 0x20 ADD SWAP1 PUSH1 0x1 ADD SWAP1 PUSH2 0x577 JUMP JUMPDEST POP POP POP POP SWAP1 POP SWAP1 JUMP JUMPDEST PUSH1 0x2 PUSH1 0x20 MSTORE DUP1 PUSH1 0x0 MSTORE PUSH1 0x40 PUSH1 0x0 KECCAK256 PUSH1 0x0 SWAP2 POP SLOAD SWAP1 PUSH2 0x100 EXP SWAP1 DIV PUSH1 0xFF AND DUP2 JUMP JUMPDEST PUSH1 0x0 PUSH1 0x3 SLOAD TIMESTAMP LT ISZERO PUSH2 0x6B5 JUMPI PUSH1 0x40 MLOAD PUSH32 0x8C379A000000000000000000000000000000000000000000000000000000000 DUP2 MSTORE PUSH1 0x4 ADD PUSH2 0x6AC SWAP1 PUSH2 0x116B JUMP JUMPDEST PUSH1 0x40 MLOAD DUP1 SWAP2 SUB SWAP1 REVERT JUMPDEST PUSH1 0x4 SLOAD TIMESTAMP LT PUSH2 0x6C7 JUMPI PUSH1 0x0 SWAP1 POP PUSH2 0x6D8 JUMP JUMPDEST TIMESTAMP PUSH1 0x4 SLOAD PUSH2 0x6D5 SWAP2 SWAP1 PUSH2 0x118B JUMP JUMPDEST SWAP1 POP JUMPDEST SWAP1 JUMP JUMPDEST PUSH1 0x0 PUSH1 0x40 MLOAD SWAP1 POP SWAP1 JUMP JUMPDEST PUSH1 0x0 DUP1 REVERT JUMPDEST PUSH1 0x0 DUP1 REVERT JUMPDEST PUSH1 0x0 DUP2 SWAP1 POP SWAP2 SWAP1 POP JUMP JUMPDEST PUSH2 0x702 DUP2 PUSH2 0x6EF JUMP JUMPDEST DUP2 EQ PUSH2 0x70D JUMPI PUSH1 0x0 DUP1 REVERT JUMPDEST POP JUMP JUMPDEST PUSH1 0x0 DUP2 CALLDATALOAD SWAP1 POP PUSH2 0x71F DUP2 PUSH2 0x6F9 JUMP JUMPDEST SWAP3 SWAP2 POP POP JUMP JUMPDEST PUSH1 0x0 PUSH1 0x20 DUP3 DUP5 SUB SLT ISZERO PUSH2 0x73B JUMPI PUSH2 0x73A PUSH2 0x6E5 JUMP JUMPDEST JUMPDEST PUSH1 0x0 PUSH2 0x749 DUP5 DUP3 DUP6 ADD PUSH2 0x710 JUMP JUMPDEST SWAP2 POP POP SWAP3 SWAP2 POP POP JUMP JUMPDEST PUSH2 0x75B DUP2 PUSH2 0x6EF JUMP JUMPDEST DUP3 MSTORE POP POP JUMP JUMPDEST PUSH1 0x0 PUSH1 0x20 DUP3 ADD SWAP1 POP PUSH2 0x776 PUSH1 0x0 DUP4 ADD DUP5 PUSH2 0x752 JUMP JUMPDEST SWAP3 SWAP2 POP POP JUMP JUMPDEST PUSH1 0x0 DUP2 MLOAD SWAP1 POP SWAP2 SWAP1 POP JUMP JUMPDEST PUSH1 0x0 DUP3 DUP3 MSTORE PUSH1 0x20 DUP3 ADD SWAP1 POP SWAP3 SWAP2 POP POP JUMP JUMPDEST PUSH1 0x0 JUMPDEST DUP4 DUP2 LT ISZERO PUSH2 0x7B6 JUMPI DUP1 DUP3 ADD MLOAD DUP2 DUP5 ADD MSTORE PUSH1 0x20 DUP2 ADD SWAP1 POP PUSH2 0x79B JUMP JUMPDEST PUSH1 0x0 DUP5 DUP5 ADD MSTORE POP POP POP POP JUMP JUMPDEST PUSH1 0x0 PUSH1 0x1F NOT PUSH1 0x1F DUP4 ADD AND SWAP1 POP SWAP2 SWAP1 POP JUMP JUMPDEST PUSH1 0x0 PUSH2 0x7DE DUP3 PUSH2 0x77C JUMP JUMPDEST PUSH2 0x7E8 DUP2 DUP6 PUSH2 0x787 JUMP JUMPDEST SWAP4 POP PUSH2 0x7F8 DUP2 DUP6 PUSH1 0x20 DUP7 ADD PUSH2 0x798 JUMP JUMPDEST PUSH2 0x801 DUP2 PUSH2 0x7C2 JUMP JUMPDEST DUP5 ADD SWAP2 POP POP SWAP3 SWAP2 POP POP JUMP JUMPDEST PUSH1 0x0 PUSH1 0x40 DUP3 ADD SWAP1 POP DUP2 DUP2 SUB PUSH1 0x0 DUP4 ADD MSTORE PUSH2 0x826 DUP2 DUP6 PUSH2 0x7D3 JUMP JUMPDEST SWAP1 POP PUSH2 0x835 PUSH1 0x20 DUP4 ADD DUP5 PUSH2 0x752 JUMP JUMPDEST SWAP4 SWAP3 POP POP POP JUMP JUMPDEST PUSH1 0x0 DUP1 REVERT JUMPDEST PUSH1 0x0 DUP1 REVERT JUMPDEST PUSH32 0x4E487B7100000000000000000000000000000000000000000000000000000000 PUSH1 0x0 MSTORE PUSH1 0x41 PUSH1 0x4 MSTORE PUSH1 0x24 PUSH1 0x0 REVERT JUMPDEST PUSH2 0x87E DUP3 PUSH2 0x7C2 JUMP JUMPDEST DUP2 ADD DUP2 DUP2 LT PUSH8 0xFFFFFFFFFFFFFFFF DUP3 GT OR ISZERO PUSH2 0x89D JUMPI PUSH2 0x89C PUSH2 0x846 JUMP JUMPDEST JUMPDEST DUP1 PUSH1 0x40 MSTORE POP POP POP JUMP JUMPDEST PUSH1 0x0 PUSH2 0x8B0 PUSH2 0x6DB JUMP JUMPDEST SWAP1 POP PUSH2 0x8BC DUP3 DUP3 PUSH2 0x875 JUMP JUMPDEST SWAP2 SWAP1 POP JUMP JUMPDEST PUSH1 0x0 PUSH8 0xFFFFFFFFFFFFFFFF DUP3 GT ISZERO PUSH2 0x8DC JUMPI PUSH2 0x8DB PUSH2 0x846 JUMP JUMPDEST JUMPDEST PUSH2 0x8E5 DUP3 PUSH2 0x7C2 JUMP JUMPDEST SWAP1 POP PUSH1 0x20 DUP2 ADD SWAP1 POP SWAP2 SWAP1 POP JUMP JUMPDEST DUP3 DUP2 DUP4 CALLDATACOPY PUSH1 0x0 DUP4 DUP4 ADD MSTORE POP POP POP JUMP JUMPDEST PUSH1 0x0 PUSH2 0x914 PUSH2 0x90F DUP5 PUSH2 0x8C1 JUMP JUMPDEST PUSH2 0x8A6 JUMP JUMPDEST SWAP1 POP DUP3 DUP2 MSTORE PUSH1 0x20 DUP2 ADD DUP5 DUP5 DUP5 ADD GT ISZERO PUSH2 0x930 JUMPI PUSH2 0x92F PUSH2 0x841 JUMP JUMPDEST JUMPDEST PUSH2 0x93B DUP5 DUP3 DUP6 PUSH2 0x8F2 JUMP JUMPDEST POP SWAP4 SWAP3 POP POP POP JUMP JUMPDEST PUSH1 0x0 DUP3 PUSH1 0x1F DUP4 ADD SLT PUSH2 0x958 JUMPI PUSH2 0x957 PUSH2 0x83C JUMP JUMPDEST JUMPDEST DUP2 CALLDATALOAD PUSH2 0x968 DUP5 DUP3 PUSH1 0x20 DUP7 ADD PUSH2 0x901 JUMP JUMPDEST SWAP2 POP POP SWAP3 SWAP2 POP POP JUMP JUMPDEST PUSH1 0x0 PUSH1 0x20 DUP3 DUP5 SUB SLT ISZERO PUSH2 0x987 JUMPI PUSH2 0x986 PUSH2 0x6E5 JUMP JUMPDEST JUMPDEST PUSH1 0x0 DUP3 ADD CALLDATALOAD PUSH8 0xFFFFFFFFFFFFFFFF DUP2 GT ISZERO PUSH2 0x9A5 JUMPI PUSH2 0x9A4 PUSH2 0x6EA JUMP JUMPDEST JUMPDEST PUSH2 0x9B1 DUP5 DUP3 DUP6 ADD PUSH2 0x943 JUMP JUMPDEST SWAP2 POP POP SWAP3 SWAP2 POP POP JUMP JUMPDEST PUSH1 0x0 DUP2 ISZERO ISZERO SWAP1 POP SWAP2 SWAP1 POP JUMP JUMPDEST PUSH2 0x9CF DUP2 PUSH2 0x9BA JUMP JUMPDEST DUP3 MSTORE POP POP JUMP JUMPDEST PUSH1 0x0 PUSH1 0x20 DUP3 ADD SWAP1 POP PUSH2 0x9EA PUSH1 0x0 DUP4 ADD DUP5 PUSH2 0x9C6 JUMP JUMPDEST SWAP3 SWAP2 POP POP JUMP JUMPDEST PUSH1 0x0 PUSH20 0xFFFFFFFFFFFFFFFFFFFFFFFFFFFFFFFFFFFFFFFF DUP3 AND SWAP1 POP SWAP2 SWAP1 POP JUMP JUMPDEST PUSH1 0x0 PUSH2 0xA1B DUP3 PUSH2 0x9F0 JUMP JUMPDEST SWAP1 POP SWAP2 SWAP1 POP JUMP JUMPDEST PUSH2 0xA2B DUP2 PUSH2 0xA10 JUMP JUMPDEST DUP3 MSTORE POP POP JUMP JUMPDEST PUSH1 0x0 PUSH1 0x20 DUP3 ADD SWAP1 POP PUSH2 0xA46 PUSH1 0x0 DUP4 ADD DUP5 PUSH2 0xA22 JUMP JUMPDEST SWAP3 SWAP2 POP POP JUMP JUMPDEST PUSH1 0x0 DUP2 MLOAD SWAP1 POP SWAP2 SWAP1 POP JUMP JUMPDEST PUSH1 0x0 DUP3 DUP3 MSTORE PUSH1 0x20 DUP3 ADD SWAP1 POP SWAP3 SWAP2 POP POP JUMP JUMPDEST PUSH1 0x0 DUP2 SWAP1 POP PUSH1 0x20 DUP3 ADD SWAP1 POP SWAP2 SWAP1 POP JUMP JUMPDEST PUSH1 0x0 DUP3 DUP3 MSTORE PUSH1 0x20 DUP3 ADD SWAP1 POP SWAP3 SWAP2 POP POP JUMP JUMPDEST PUSH1 0x0 PUSH2 0xA94 DUP3 PUSH2 0x77C JUMP JUMPDEST PUSH2 0xA9E DUP2 DUP6 PUSH2 0xA78 JUMP JUMPDEST SWAP4 POP PUSH2 0xAAE DUP2 DUP6 PUSH1 0x20 DUP7 ADD PUSH2 0x798 JUMP JUMPDEST PUSH2 0xAB7 DUP2 PUSH2 0x7C2 JUMP JUMPDEST DUP5 ADD SWAP2 POP POP SWAP3 SWAP2 POP POP JUMP JUMPDEST PUSH2 0xACB DUP2 PUSH2 0x6EF JUMP JUMPDEST DUP3 MSTORE POP POP JUMP JUMPDEST PUSH1 0x0 PUSH1 0x40 DUP4 ADD PUSH1 0x0 DUP4 ADD MLOAD DUP5 DUP3 SUB PUSH1 0x0 DUP7 ADD MSTORE PUSH2 0xAEE DUP3 DUP3 PUSH2 0xA89 JUMP JUMPDEST SWAP2 POP POP PUSH1 0x20 DUP4 ADD MLOAD PUSH2 0xB03 PUSH1 0x20 DUP7 ADD DUP3 PUSH2 0xAC2 JUMP JUMPDEST POP DUP1 SWAP2 POP POP SWAP3 SWAP2 POP POP JUMP JUMPDEST PUSH1 0x0 PUSH2 0xB1A DUP4 DUP4 PUSH2 0xAD1 JUMP JUMPDEST SWAP1 POP SWAP3 SWAP2 POP POP JUMP JUMPDEST PUSH1 0x0 PUSH1 0x20 DUP3 ADD SWAP1 POP SWAP2 SWAP1 POP JUMP JUMPDEST PUSH1 0x0 PUSH2 0xB3A DUP3 PUSH2 0xA4C JUMP JUMPDEST PUSH2 0xB44 DUP2 DUP6 PUSH2 0xA57 JUMP JUMPDEST SWAP4 POP DUP4 PUSH1 0x20 DUP3 MUL DUP6 ADD PUSH2 0xB56 DUP6 PUSH2 0xA68 JUMP JUMPDEST DUP1 PUSH1 0x0 JUMPDEST DUP6 DUP2 LT ISZERO PUSH2 0xB92 JUMPI DUP5 DUP5 SUB DUP10 MSTORE DUP2 MLOAD PUSH2 0xB73 DUP6 DUP3 PUSH2 0xB0E JUMP JUMPDEST SWAP5 POP PUSH2 0xB7E DUP4 PUSH2 0xB22 JUMP JUMPDEST SWAP3 POP PUSH1 0x20 DUP11 ADD SWAP10 POP POP PUSH1 0x1 DUP2 ADD SWAP1 POP PUSH2 0xB5A JUMP JUMPDEST POP DUP3 SWAP8 POP DUP8 SWAP6 POP POP POP POP POP POP SWAP3 SWAP2 POP POP JUMP JUMPDEST PUSH1 0x0 PUSH1 0x20 DUP3 ADD SWAP1 POP DUP2 DUP2 SUB PUSH1 0x0 DUP4 ADD MSTORE PUSH2 0xBBE DUP2 DUP5 PUSH2 0xB2F JUMP JUMPDEST SWAP1 POP SWAP3 SWAP2 POP POP JUMP JUMPDEST PUSH2 0xBCF DUP2 PUSH2 0xA10 JUMP JUMPDEST DUP2 EQ PUSH2 0xBDA JUMPI PUSH1 0x0 DUP1 REVERT JUMPDEST POP JUMP JUMPDEST PUSH1 0x0 DUP2 CALLDATALOAD SWAP1 POP PUSH2 0xBEC DUP2 PUSH2 0xBC6 JUMP JUMPDEST SWAP3 SWAP2 POP POP JUMP JUMPDEST PUSH1 0x0 PUSH1 0x20 DUP3 DUP5 SUB SLT ISZERO PUSH2 0xC08 JUMPI PUSH2 0xC07 PUSH2 0x6E5 JUMP JUMPDEST JUMPDEST PUSH1 0x0 PUSH2 0xC16 DUP5 DUP3 DUP6 ADD PUSH2 0xBDD JUMP JUMPDEST SWAP2 POP POP SWAP3 SWAP2 POP POP JUMP JUMPDEST PUSH32 0x596F75206861766520616C726561647920766F74656400000000000000000000 PUSH1 0x0 DUP3 ADD MSTORE POP JUMP JUMPDEST PUSH1 0x0 PUSH2 0xC55 PUSH1 0x16 DUP4 PUSH2 0x787 JUMP JUMPDEST SWAP2 POP PUSH2 0xC60 DUP3 PUSH2 0xC1F JUMP JUMPDEST PUSH1 0x20 DUP3 ADD SWAP1 POP SWAP2 SWAP1 POP JUMP JUMPDEST PUSH1 0x0 PUSH1 0x20 DUP3 ADD SWAP1 POP DUP2 DUP2 SUB PUSH1 0x0 DUP4 ADD MSTORE PUSH2 0xC84 DUP2 PUSH2 0xC48 JUMP JUMPDEST SWAP1 POP SWAP2 SWAP1 POP JUMP JUMPDEST PUSH32 0x496E76616C69642063616E64696461746520696E646578000000000000000000 PUSH1 0x0 DUP3 ADD MSTORE POP JUMP JUMPDEST PUSH1 0x0 PUSH2 0xCC1 PUSH1 0x17 DUP4 PUSH2 0x787 JUMP JUMPDEST SWAP2 POP PUSH2 0xCCC DUP3 PUSH2 0xC8B JUMP JUMPDEST PUSH1 0x20 DUP3 ADD SWAP1 POP SWAP2 SWAP1 POP JUMP JUMPDEST PUSH1 0x0 PUSH1 0x20 DUP3 ADD SWAP1 POP DUP2 DUP2 SUB PUSH1 0x0 DUP4 ADD MSTORE PUSH2 0xCF0 DUP2 PUSH2 0xCB4 JUMP JUMPDEST SWAP1 POP SWAP2 SWAP1 POP JUMP JUMPDEST PUSH32 0x4E487B7100000000000000000000000000000000000000000000000000000000 PUSH1 0x0 MSTORE PUSH1 0x32 PUSH1 0x4 MSTORE PUSH1 0x24 PUSH1 0x0 REVERT JUMPDEST PUSH32 0x4E487B7100000000000000000000000000000000000000000000000000000000 PUSH1 0x0 MSTORE PUSH1 0x11 PUSH1 0x4 MSTORE PUSH1 0x24 PUSH1 0x0 REVERT JUMPDEST PUSH1 0x0 PUSH2 0xD60 DUP3 PUSH2 0x6EF JUMP JUMPDEST SWAP2 POP PUSH2 0xD6B DUP4 PUSH2 0x6EF JUMP JUMPDEST SWAP3 POP DUP3 DUP3 ADD SWAP1 POP DUP1 DUP3 GT ISZERO PUSH2 0xD83 JUMPI PUSH2 0xD82 PUSH2 0xD26 JUMP JUMPDEST JUMPDEST SWAP3 SWAP2 POP POP JUMP JUMPDEST PUSH32 0x4E487B7100000000000000000000000000000000000000000000000000000000 PUSH1 0x0 MSTORE PUSH1 0x22 PUSH1 0x4 MSTORE PUSH1 0x24 PUSH1 0x0 REVERT JUMPDEST PUSH1 0x0 PUSH1 0x2 DUP3 DIV SWAP1 POP PUSH1 0x1 DUP3 AND DUP1 PUSH2 0xDD0 JUMPI PUSH1 0x7F DUP3 AND SWAP2 POP JUMPDEST PUSH1 0x20 DUP3 LT DUP2 SUB PUSH2 0xDE3 JUMPI PUSH2 0xDE2 PUSH2 0xD89 JUMP JUMPDEST JUMPDEST POP SWAP2 SWAP1 POP JUMP JUMPDEST PUSH32 0x4F6E6C79206F776E65722063616E20706572666F726D20746869732061637469 PUSH1 0x0 DUP3 ADD MSTORE PUSH32 0x6F6E000000000000000000000000000000000000000000000000000000000000 PUSH1 0x20 DUP3 ADD MSTORE POP JUMP JUMPDEST PUSH1 0x0 PUSH2 0xE45 PUSH1 0x22 DUP4 PUSH2 0x787 JUMP JUMPDEST SWAP2 POP PUSH2 0xE50 DUP3 PUSH2 0xDE9 JUMP JUMPDEST PUSH1 0x40 DUP3 ADD SWAP1 POP SWAP2 SWAP1 POP JUMP JUMPDEST PUSH1 0x0 PUSH1 0x20 DUP3 ADD SWAP1 POP DUP2 DUP2 SUB PUSH1 0x0 DUP4 ADD MSTORE PUSH2 0xE74 DUP2 PUSH2 0xE38 JUMP JUMPDEST SWAP1 POP SWAP2 SWAP1 POP JUMP JUMPDEST PUSH1 0x0 DUP2 SWAP1 POP DUP2 PUSH1 0x0 MSTORE PUSH1 0x20 PUSH1 0x0 KECCAK256 SWAP1 POP SWAP2 SWAP1 POP JUMP JUMPDEST PUSH1 0x0 PUSH1 0x20 PUSH1 0x1F DUP4 ADD DIV SWAP1 POP SWAP2 SWAP1 POP JUMP JUMPDEST PUSH1 0x0 DUP3 DUP3 SHL SWAP1 POP SWAP3 SWAP2 POP POP JUMP JUMPDEST PUSH1 0x0 PUSH1 0x8 DUP4 MUL PUSH2 0xEDD PUSH32 0xFFFFFFFFFFFFFFFFFFFFFFFFFFFFFFFFFFFFFFFFFFFFFFFFFFFFFFFFFFFFFFFF DUP3 PUSH2 0xEA0 JUMP JUMPDEST PUSH2 0xEE7 DUP7 DUP4 PUSH2 0xEA0 JUMP JUMPDEST SWAP6 POP DUP1 NOT DUP5 AND SWAP4 POP DUP1 DUP7 AND DUP5 OR SWAP3 POP POP POP SWAP4 SWAP3 POP POP POP JUMP JUMPDEST PUSH1 0x0 DUP2 SWAP1 POP SWAP2 SWAP1 POP JUMP JUMPDEST PUSH1 0x0 PUSH2 0xF24 PUSH2 0xF1F PUSH2 0xF1A DUP5 PUSH2 0x6EF JUMP JUMPDEST PUSH2 0xEFF JUMP JUMPDEST PUSH2 0x6EF JUMP JUMPDEST SWAP1 POP SWAP2 SWAP1 POP JUMP JUMPDEST PUSH1 0x0 DUP2 SWAP1 POP SWAP2 SWAP1 POP JUMP JUMPDEST PUSH2 0xF3E DUP4 PUSH2 0xF09 JUMP JUMPDEST PUSH2 0xF52 PUSH2 0xF4A DUP3 PUSH2 0xF2B JUMP JUMPDEST DUP5 DUP5 SLOAD PUSH2 0xEAD JUMP JUMPDEST DUP3 SSTORE POP POP POP POP JUMP JUMPDEST PUSH1 0x0 SWAP1 JUMP JUMPDEST PUSH2 0xF67 PUSH2 0xF5A JUMP JUMPDEST PUSH2 0xF72 DUP2 DUP5 DUP5 PUSH2 0xF35 JUMP JUMPDEST POP POP POP JUMP JUMPDEST JUMPDEST DUP2 DUP2 LT ISZERO PUSH2 0xF96 JUMPI PUSH2 0xF8B PUSH1 0x0 DUP3 PUSH2 0xF5F JUMP JUMPDEST PUSH1 0x1 DUP2 ADD SWAP1 POP PUSH2 0xF78 JUMP JUMPDEST POP POP JUMP JUMPDEST PUSH1 0x1F DUP3 GT ISZERO PUSH2 0xFDB JUMPI PUSH2 0xFAC DUP2 PUSH2 0xE7B JUMP JUMPDEST PUSH2 0xFB5 DUP5 PUSH2 0xE90 JUMP JUMPDEST DUP2 ADD PUSH1 0x20 DUP6 LT ISZERO PUSH2 0xFC4 JUMPI DUP2 SWAP1 POP JUMPDEST PUSH2 0xFD8 PUSH2 0xFD0 DUP6 PUSH2 0xE90 JUMP JUMPDEST DUP4 ADD DUP3 PUSH2 0xF77 JUMP JUMPDEST POP POP JUMPDEST POP POP POP JUMP JUMPDEST PUSH1 0x0 DUP3 DUP3 SHR SWAP1 POP SWAP3 SWAP2 POP POP JUMP JUMPDEST PUSH1 0x0 PUSH2 0xFFE PUSH1 0x0 NOT DUP5 PUSH1 0x8 MUL PUSH2 0xFE0 JUMP JUMPDEST NOT DUP1 DUP4 AND SWAP2 POP POP SWAP3 SWAP2 POP POP JUMP JUMPDEST PUSH1 0x0 PUSH2 0x1017 DUP4 DUP4 PUSH2 0xFED JUMP JUMPDEST SWAP2 POP DUP3 PUSH1 0x2 MUL DUP3 OR SWAP1 POP SWAP3 SWAP2 POP POP JUMP JUMPDEST PUSH2 0x1030 DUP3 PUSH2 0x77C JUMP JUMPDEST PUSH8 0xFFFFFFFFFFFFFFFF DUP2 GT ISZERO PUSH2 0x1049 JUMPI PUSH2 0x1048 PUSH2 0x846 JUMP JUMPDEST JUMPDEST PUSH2 0x1053 DUP3 SLOAD PUSH2 0xDB8 JUMP JUMPDEST PUSH2 0x105E DUP3 DUP3 DUP6 PUSH2 0xF9A JUMP JUMPDEST PUSH1 0x0 PUSH1 0x20 SWAP1 POP PUSH1 0x1F DUP4 GT PUSH1 0x1 DUP2 EQ PUSH2 0x1091 JUMPI PUSH1 0x0 DUP5 ISZERO PUSH2 0x107F JUMPI DUP3 DUP8 ADD MLOAD SWAP1 POP JUMPDEST PUSH2 0x1089 DUP6 DUP3 PUSH2 0x100B JUMP JUMPDEST DUP7 SSTORE POP PUSH2 0x10F1 JUMP JUMPDEST PUSH1 0x1F NOT DUP5 AND PUSH2 0x109F DUP7 PUSH2 0xE7B JUMP JUMPDEST PUSH1 0x0 JUMPDEST DUP3 DUP2 LT ISZERO PUSH2 0x10C7 JUMPI DUP5 DUP10 ADD MLOAD DUP3 SSTORE PUSH1 0x1 DUP3 ADD SWAP2 POP PUSH1 0x20 DUP6 ADD SWAP5 POP PUSH1 0x20 DUP2 ADD SWAP1 POP PUSH2 0x10A2 JUMP JUMPDEST DUP7 DUP4 LT ISZERO PUSH2 0x10E4 JUMPI DUP5 DUP10 ADD MLOAD PUSH2 0x10E0 PUSH1 0x1F DUP10 AND DUP3 PUSH2 0xFED JUMP JUMPDEST DUP4 SSTORE POP JUMPDEST PUSH1 0x1 PUSH1 0x2 DUP9 MUL ADD DUP9 SSTORE POP POP POP JUMPDEST POP POP POP POP POP POP JUMP JUMPDEST PUSH32 0x566F74696E6720706572696F6420686173206E6F742073746172746564207965 PUSH1 0x0 DUP3 ADD MSTORE PUSH32 0x7400000000000000000000000000000000000000000000000000000000000000 PUSH1 0x20 DUP3 ADD MSTORE POP JUMP JUMPDEST PUSH1 0x0 PUSH2 0x1155 PUSH1 0x21 DUP4 PUSH2 0x787 JUMP JUMPDEST SWAP2 POP PUSH2 0x1160 DUP3 PUSH2 0x10F9 JUMP JUMPDEST PUSH1 0x40 DUP3 ADD SWAP1 POP SWAP2 SWAP1 POP JUMP JUMPDEST PUSH1 0x0 PUSH1 0x20 DUP3 ADD SWAP1 POP DUP2 DUP2 SUB PUSH1 0x0 DUP4 ADD MSTORE PUSH2 0x1184 DUP2 PUSH2 0x1148 JUMP JUMPDEST SWAP1 POP SWAP2 SWAP1 POP JUMP JUMPDEST PUSH1 0x0 PUSH2 0x1196 DUP3 PUSH2 0x6EF JUMP JUMPDEST SWAP2 POP PUSH2 0x11A1 DUP4 PUSH2 0x6EF JUMP JUMPDEST SWAP3 POP DUP3 DUP3 SUB SWAP1 POP DUP2 DUP2 GT ISZERO PUSH2 0x11B9 JUMPI PUSH2 0x11B8 PUSH2 0xD26 JUMP JUMPDEST JUMPDEST SWAP3 SWAP2 POP POP JUMP INVALID LOG2 PUSH5 0x6970667358 0x22 SLT KECCAK256 0xD6 LOG3 0xDF 0xB3 0x21 0xC4 NUMBER PUSH9 0x9224417E6D02B4C34C NUMBER JUMP STOP 0xBF BLOCKHASH SHR 0x2C 0xAD CREATE2 PC BYTE 0x25 CALLVALUE 0xD PUSH29 0x64736F6C634300081C0033000000000000000000000000000000000000 "},"methodIdentifiers":{"addCandidate(string)":"462e91ec","candidates(uint256)":"3477ee2e","getAllVotesOfCandidates()":"90a9ab90","getRemainingTime()":"efb98bcf","getVotingStatus()":"581c281c","owner()":"8da5cb5b","vote(uint256)":"0121b93f","voters(address)":"a3ec138d","votingEnd()":"85a38635","votingStart()":"101158af"}}}}}