{
  "_format": "hh-sol-artifact-1",
  "contractName": "Voting",
  "sourceName": "contracts/Voting.sol",
  "abi": [
    {
      "inputs": [
        {
          "internalType": "string[]",
          "name": "_candidateNames",
          "type": "string[]"
        },
        {
          "internalType": "uint256",
          "name": "_votingDuration",
          "type": "uint256"
        }
      ],
      "stateMutability": "nonpayable",
      "type": "constructor"
    },
    {
      "inputs": [
        {
          "internalType": "string",
          "name": "_name",
          "type": "string"
        }
      ],
      "name": "addCandidate",
      "outputs": [],
      "stateMutability": "nonpayable",
      "type": "function"
    },
    {
      "inputs": [
        {
          "internalType": "uint256",
          "name": "",
          "type": "uint256"
        }
      ],
      "name": "candidates",
      "outputs": [
        {
          "internalType": "string",
          "name": "name",
          "type": "string"
        },
        {
          "internalType": "uint256",
          "name": "voteCount",
          "type": "uint256"
        }
      ],
      "stateMutability": "view",
      "type": "function"
    },
    {
      "inputs": [],
      "name": "getAllVotesOfCandidates",
      "outputs": [
        {
          "components": [
            {
              "internalType": "string",
              "name": "name",
              "type": "string"
            },
            {
              "internalType": "uint256",
              "name": "voteCount",
              "type": "uint256"
            }
          ],
          "internalType": "struct Voting.Candidate[]",
          "name": "",
          "type": "tuple[]"
        }
      ],
      "stateMutability": "view",
      "type": "function"
    },
    {
      "inputs": [],
      "name": "getRemainingTime",
      "outputs": [
        {
          "internalType": "uint256",
          "name": "",
          "type": "uint256"
        }
      ],
      "stateMutability": "view",
      "type": "function"
    },
    {
      "inputs": [],
      "name": "getVotingStatus",
      "outputs": [
        {
          "internalType": "bool",
          "name": "",
          "type": "bool"
        }
      ],
      "stateMutability": "view",
      "type": "function"
    },
    {
      "inputs": [],
      "name": "owner",
      "outputs": [
        {
          "internalType": "address",
          "name": "",
          "type": "address"
        }
      ],
      "stateMutability": "view",
      "type": "function"
    },
    {
      "inputs": [
        {
          "internalType": "uint256",
          "name": "_candidateIndex",
          "type": "uint256"
        }
      ],
      "name": "vote",
      "outputs": [],
      "stateMutability": "nonpayable",
      "type": "function"
    },
    {
      "inputs": [
        {
          "internalType": "address",
          "name": "",
          "type": "address"
        }
      ],
      "name": "voters",
      "outputs": [
        {
          "internalType": "bool",
          "name": "",
          "type": "bool"
        }
      ],
      "stateMutability": "view",
      "type": "function"
    },
    {
      "inputs": [],
      "name": "votingEnd",
      "outputs": [
        {
          "internalType": "uint256",
          "name": "",
          "type": "uint256"
        }
      ],
      "stateMutability": "view",
      "type": "function"
    },
    {
      "inputs": [],
      "name": "votingStart",
      "outputs": [
        {
          "internalType": "uint256",
          "name": "",
          "type": "uint256"
        }
      ],
      "stateMutability": "view",
      "type": "function"
    }
  ],
  "bytecode": "0x608060405234801561001057600080fd5b506040516119e43803806119e4833981810160405281019061003291906103c7565b60005b82518110156100c8576000604051806040016040528085848151811061005e5761005d610423565b5b602002602001015181526020016000815250908060018154018082558091505060019003906000526020600020906002020160009091909190915060008201518160000190816100ae9190610669565b506020820151816001015550508080600101915050610035565b5033600160006101000a81548173ffffffffffffffffffffffffffffffffffffffff021916908373ffffffffffffffffffffffffffffffffffffffff16021790555042600381905550603c8161011e919061076a565b4261012991906107ac565b60048190555050506107e0565b6000604051905090565b600080fd5b600080fd5b600080fd5b6000601f19601f8301169050919050565b7f4e487b7100000000000000000000000000000000000000000000000000000000600052604160045260246000fd5b6101988261014f565b810181811067ffffffffffffffff821117156101b7576101b6610160565b5b80604052505050565b60006101ca610136565b90506101d6828261018f565b919050565b600067ffffffffffffffff8211156101f6576101f5610160565b5b602082029050602081019050919050565b600080fd5b600080fd5b600067ffffffffffffffff82111561022c5761022b610160565b5b6102358261014f565b9050602081019050919050565b60005b83811015610260578082015181840152602081019050610245565b60008484015250505050565b600061027f61027a84610211565b6101c0565b90508281526020810184848401111561029b5761029a61020c565b5b6102a6848285610242565b509392505050565b600082601f8301126102c3576102c261014a565b5b81516102d384826020860161026c565b91505092915050565b60006102ef6102ea846101db565b6101c0565b9050808382526020820190506020840283018581111561031257610311610207565b5b835b8181101561035957805167ffffffffffffffff8111156103375761033661014a565b5b80860161034489826102ae565b85526020850194505050602081019050610314565b5050509392505050565b600082601f8301126103785761037761014a565b5b81516103888482602086016102dc565b91505092915050565b6000819050919050565b6103a481610391565b81146103af57600080fd5b50565b6000815190506103c18161039b565b92915050565b600080604083850312156103de576103dd610140565b5b600083015167ffffffffffffffff8111156103fc576103fb610145565b5b61040885828601610363565b9250506020610419858286016103b2565b9150509250929050565b7f4e487b7100000000000000000000000000000000000000000000000000000000600052603260045260246000fd5b600081519050919050565b7f4e487b7100000000000000000000000000000000000000000000000000000000600052602260045260246000fd5b600060028204905060018216806104a457607f821691505b6020821081036104b7576104b661045d565b5b50919050565b60008190508160005260206000209050919050565b60006020601f8301049050919050565b600082821b905092915050565b60006008830261051f7fffffffffffffffffffffffffffffffffffffffffffffffffffffffffffffffff826104e2565b61052986836104e2565b95508019841693508086168417925050509392505050565b6000819050919050565b600061056661056161055c84610391565b610541565b610391565b9050919050565b6000819050919050565b6105808361054b565b61059461058c8261056d565b8484546104ef565b825550505050565b600090565b6105a961059c565b6105b4818484610577565b505050565b5b818110156105d8576105cd6000826105a1565b6001810190506105ba565b5050565b601f82111561061d576105ee816104bd565b6105f7846104d2565b81016020851015610606578190505b61061a610612856104d2565b8301826105b9565b50505b505050565b600082821c905092915050565b600061064060001984600802610622565b1980831691505092915050565b6000610659838361062f565b9150826002028217905092915050565b61067282610452565b67ffffffffffffffff81111561068b5761068a610160565b5b610695825461048c565b6106a08282856105dc565b600060209050601f8311600181146106d357600084156106c1578287015190505b6106cb858261064d565b865550610733565b601f1984166106e1866104bd565b60005b82811015610709578489015182556001820191506020850194506020810190506106e4565b868310156107265784890151610722601f89168261062f565b8355505b6001600288020188555050505b505050505050565b7f4e487b7100000000000000000000000000000000000000000000000000000000600052601160045260246000fd5b600061077582610391565b915061078083610391565b925082820261078e81610391565b915082820484148315176107a5576107a461073b565b5b5092915050565b60006107b782610391565b91506107c283610391565b92508282019050808211156107da576107d961073b565b5b92915050565b6111f5806107ef6000396000f3fe608060405234801561001057600080fd5b506004361061009e5760003560e01c806385a386351161006657806385a38635146101485780638da5cb5b1461016657806390a9ab9014610184578063a3ec138d146101a2578063efb98bcf146101d25761009e565b80630121b93f146100a3578063101158af146100bf5780633477ee2e146100dd578063462e91ec1461010e578063581c281c1461012a575b600080fd5b6100bd60048036038101906100b89190610725565b6101f0565b005b6100c7610354565b6040516100d49190610761565b60405180910390f35b6100f760048036038101906100f29190610725565b61035a565b60405161010592919061080c565b60405180910390f35b61012860048036038101906101239190610971565b610416565b005b61013261050c565b60405161013f91906109d5565b60405180910390f35b610150610527565b60405161015d9190610761565b60405180910390f35b61016e61052d565b60405161017b9190610a31565b60405180910390f35b61018c610553565b6040516101999190610ba4565b60405180910390f35b6101bc60048036038101906101b79190610bf2565b61064e565b6040516101c991906109d5565b60405180910390f35b6101da61066e565b6040516101e79190610761565b60405180910390f35b600260003373ffffffffffffffffffffffffffffffffffffffff1673ffffffffffffffffffffffffffffffffffffffff16815260200190815260200160002060009054906101000a900460ff161561027d576040517f08c379a000000000000000000000000000000000000000000000000000000000815260040161027490610c6b565b60405180910390fd5b60008054905081106102c4576040517f08c379a00000000000000000000000000000000000000000000000000000000081526004016102bb90610cd7565b60405180910390fd5b6001600082815481106102da576102d9610cf7565b5b906000526020600020906002020160010160008282546102fa9190610d55565b9250508190555060011515600260003373ffffffffffffffffffffffffffffffffffffffff1673ffffffffffffffffffffffffffffffffffffffff16815260200190815260200160002060009054906101000a9050505050565b60035481565b6000818154811061036a57600080fd5b906000526020600020906002020160009150905080600001805461038d90610db8565b80601f01602080910402602001604051908101604052809291908181526020018280546103b990610db8565b80156104065780601f106103db57610100808354040283529160200191610406565b820191906000526020600020905b8154815290600101906020018083116103e957829003601f168201915b5050505050908060010154905082565b600160009054906101000a900473ffffffffffffffffffffffffffffffffffffffff1673ffffffffffffffffffffffffffffffffffffffff163373ffffffffffffffffffffffffffffffffffffffff16146104a6576040517f08c379a000000000000000000000000000000000000000000000000000000000815260040161049d90610e5b565b60405180910390fd5b600060405180604001604052808381526020016000815250908060018154018082558091505060019003906000526020600020906002020160009091909190915060008201518160000190816104fc9190611027565b5060208201518160010155505050565b6000600354421015801561052257506004544211155b905090565b60045481565b600160009054906101000a900473ffffffffffffffffffffffffffffffffffffffff1681565b60606000805480602002602001604051908101604052809291908181526020016000905b8282101561064557838290600052602060002090600202016040518060400160405290816000820180546105aa90610db8565b80601f01602080910402602001604051908101604052809291908181526020018280546105d690610db8565b80156106235780601f106105f857610100808354040283529160200191610623565b820191906000526020600020905b81548152906001019060200180831161060657829003601f168201915b5050505050815260200160018201548152505081526020019060010190610577565b50505050905090565b60026020528060005260406000206000915054906101000a900460ff1681565b60006003544210156106b5576040517f08c379a00000000000000000000000000000000000000000000000000000000081526004016106ac9061116b565b60405180910390fd5b60045442106106c757600090506106d8565b426004546106d5919061118b565b90505b90565b6000604051905090565b600080fd5b600080fd5b6000819050919050565b610702816106ef565b811461070d57600080fd5b50565b60008135905061071f816106f9565b92915050565b60006020828403121561073b5761073a6106e5565b5b600061074984828501610710565b91505092915050565b61075b816106ef565b82525050565b60006020820190506107766000830184610752565b92915050565b600081519050919050565b600082825260208201905092915050565b60005b838110156107b657808201518184015260208101905061079b565b60008484015250505050565b6000601f19601f8301169050919050565b60006107de8261077c565b6107e88185610787565b93506107f8818560208601610798565b610801816107c2565b840191505092915050565b6000604082019050818103600083015261082681856107d3565b90506108356020830184610752565b9392505050565b600080fd5b600080fd5b7f4e487b7100000000000000000000000000000000000000000000000000000000600052604160045260246000fd5b61087e826107c2565b810181811067ffffffffffffffff8211171561089d5761089c610846565b5b80604052505050565b60006108b06106db565b90506108bc8282610875565b919050565b600067ffffffffffffffff8211156108dc576108db610846565b5b6108e5826107c2565b9050602081019050919050565b82818337600083830152505050565b600061091461090f846108c1565b6108a6565b9050828152602081018484840111156109305761092f610841565b5b61093b8482856108f2565b509392505050565b600082601f8301126109585761095761083c565b5b8135610968848260208601610901565b91505092915050565b600060208284031215610987576109866106e5565b5b600082013567ffffffffffffffff8111156109a5576109a46106ea565b5b6109b184828501610943565b91505092915050565b60008115159050919050565b6109cf816109ba565b82525050565b60006020820190506109ea60008301846109c6565b92915050565b600073ffffffffffffffffffffffffffffffffffffffff82169050919050565b6000610a1b826109f0565b9050919050565b610a2b81610a10565b82525050565b6000602082019050610a466000830184610a22565b92915050565b600081519050919050565b600082825260208201905092915050565b6000819050602082019050919050565b600082825260208201905092915050565b6000610a948261077c565b610a9e8185610a78565b9350610aae818560208601610798565b610ab7816107c2565b840191505092915050565b610acb816106ef565b82525050565b60006040830160008301518482036000860152610aee8282610a89565b9150506020830151610b036020860182610ac2565b508091505092915050565b6000610b1a8383610ad1565b905092915050565b6000602082019050919050565b6000610b3a82610a4c565b610b448185610a57565b935083602082028501610b5685610a68565b8060005b85811015610b925784840389528151610b738582610b0e565b9450610b7e83610b22565b925060208a01995050600181019050610b5a565b50829750879550505050505092915050565b60006020820190508181036000830152610bbe8184610b2f565b905092915050565b610bcf81610a10565b8114610bda57600080fd5b50565b600081359050610bec81610bc6565b92915050565b600060208284031215610c0857610c076106e5565b5b6000610c1684828501610bdd565b91505092915050565b7f596f75206861766520616c726561647920766f74656400000000000000000000600082015250565b6000610c55601683610787565b9150610c6082610c1f565b602082019050919050565b60006020820190508181036000830152610c8481610c48565b9050919050565b7f496e76616c69642063616e64696461746520696e646578000000000000000000600082015250565b6000610cc1601783610787565b9150610ccc82610c8b565b602082019050919050565b60006020820190508181036000830152610cf081610cb4565b9050919050565b7f4e487b7100000000000000000000000000000000000000000000000000000000600052603260045260246000fd5b7f4e487b7100000000000000000000000000000000000000000000000000000000600052601160045260246000fd5b6000610d60826106ef565b9150610d6b836106ef565b9250828201905080821115610d8357610d82610d26565b5b92915050565b7f4e487b7100000000000000000000000000000000000000000000000000000000600052602260045260246000fd5b60006002820490506001821680610dd057607f821691505b602082108103610de357610de2610d89565b5b50919050565b7f4f6e6c79206f776e65722063616e20706572666f726d2074686973206163746960008201527f6f6e000000000000000000000000000000000000000000000000000000000000602082015250565b6000610e45602283610787565b9150610e5082610de9565b604082019050919050565b60006020820190508181036000830152610e7481610e38565b9050919050565b60008190508160005260206000209050919050565b60006020601f8301049050919050565b600082821b905092915050565b600060088302610edd7fffffffffffffffffffffffffffffffffffffffffffffffffffffffffffffffff82610ea0565b610ee78683610ea0565b95508019841693508086168417925050509392505050565b6000819050919050565b6000610f24610f1f610f1a846106ef565b610eff565b6106ef565b9050919050565b6000819050919050565b610f3e83610f09565b610f52610f4a82610f2b565b848454610ead565b825550505050565b600090565b610f67610f5a565b610f72818484610f35565b505050565b5b81811015610f9657610f8b600082610f5f565b600181019050610f78565b5050565b601f821115610fdb57610fac81610e7b565b610fb584610e90565b81016020851015610fc4578190505b610fd8610fd085610e90565b830182610f77565b50505b505050565b600082821c905092915050565b6000610ffe60001984600802610fe0565b1980831691505092915050565b60006110178383610fed565b9150826002028217905092915050565b6110308261077c565b67ffffffffffffffff81111561104957611048610846565b5b6110538254610db8565b61105e828285610f9a565b600060209050601f831160018114611091576000841561107f578287015190505b611089858261100b565b8655506110f1565b601f19841661109f86610e7b565b60005b828110156110c7578489015182556001820191506020850194506020810190506110a2565b868310156110e457848901516110e0601f891682610fed565b8355505b6001600288020188555050505b505050505050565b7f566f74696e6720706572696f6420686173206e6f74207374617274656420796560008201527f7400000000000000000000000000000000000000000000000000000000000000602082015250565b6000611155602183610787565b9150611160826110f9565b604082019050919050565b6000602082019050818103600083015261118481611148565b9050919050565b6000611196826106ef565b91506111a1836106ef565b92508282039050818111156111b9576111b8610d26565b5b9291505056fea2646970667358221220d6a3dfb321c443689224417e6d02b4c34c435600bf401c2cadf5581a25340d7c64736f6c634300081c0033",
  "linkReferences": {},
  "deployedLinkReferences": {}
}